:020000040800F2
:1000000010070020310200083D11000835110008DA
:1000100039110008990400080113000800000000CD
:100020000000000000000000000000004511000872
:100030009D0400080000000041110008491100085B
:100040004B0200084B0200084B0200084B0200085C
:100050004B0200084B0200084B0200084B0200084C
:100060004B0200084B0200084B0200084B0200083C
:100070004B0200084B0200084B0200084B0200082C
:100080004B0200084B0200084B0200084B0200081C
:100090004B0200084B0200084B0200084B0200080C
:1000A0004B0200084B0200084B0200084B020008FC
:1000B0004B0200084B0200084B0200084B020008EC
:1000C0004B0200084B0200084B0200084B020008DC
:1000D0004B0200084B0200084B0200084B020008CC
:1000E0004B0200084B0200084B0200084B020008BC
:1000F0004B0200084B0200084B0200084B020008AC
:100100004B0200084B0200084B0200084B0200089B
:100110004B0200084B0200084B0200084B0200088B
:100120004B0200084B0200084B0200084B0200087B
:100130004B0200084B0200084B0200084B0200086B
:100140004B0200084B0200084B0200084B0200085B
:100150004B0200084B0200084B0200084B0200084B
:100160004B0200084B0200084B0200084B0200083B
:100170004B0200084B0200084B0200080000000080
:100180004B0200084B02000800F002F800F041F8B2
:100190000AA090E8000C82448344AAF10107DA45E2
:1001A00001D100F036F8AFF2090EBAE80F0013F0F3
:1001B000010F18BFFB1A43F001031847A4120000F7
:1001C000C4120000103A24BF78C878C1FAD8520788
:1001D00024BF30C830C144BF04680C6070470000C1
:1001E0000023002400250026103A28BF78C1FBD840
:1001F000520728BF30C148BF0B607047732900F019
:100200000C81002070471FB501F011F91FBD10B51A
:1002100010BD00F006F91146FFF7F5FF01F072F886
:1002200000F024F903B4FFF7F2FF03BC00F02CF94F
:100230000948804709480047FEE7FEE7FEE7FEE77A
:10024000FEE7FEE7FEE7FEE7FEE7FEE704480549B6
:10025000054A064B70470000FD110008890100089F
:1002600010010020100700201003002010030020C0
:1002700053EA020C00F069802DE9F04B4FF00006C4
:10028000002B1FBFB3FA83F503FA05F424FA05F631
:100290005E4012BF1643B2FA82F502FA05F4C5F1C8
:1002A00020051EBF22FA05FC44EA0C04203556EA5C
:1002B000044C4FEA144418BF641C4FF000084FF080
:1002C0000009904271EB030C39D3002919BFB1FA30
:1002D00081F701FA07F6B0FA80F700FA07F6C7F1DE
:1002E00020071EBF20FA07FC46EA0C062037B6FBA3
:1002F000F4FCA7EB0507103F07F01F0BCBF120061E
:100300002CFA06F60CFA0BFB44BFB3460026202F4E
:10031000A4BF5E464FF0000B5BEA060C08BF4FF02F
:10032000010B19EB0B0948EB0608ABFB027C06FB43
:1003300002CC0BFB03CCC01B71EB0C01C1E70B46DD
:10034000024641464846BDE8F08B13B5084318BF46
:100350004FF0FF300146AFF30080BDE81C4070470E
:1003600070B50C460546012A05D02878800600D5D0
:10037000EA69002302E0012305E05B1C934202D2FC
:10038000E05C0028F9D1A869E618C01AA861286ABB
:10039000184428622846AFF3008004E0D5E9012123
:1003A00014F8010B9047B442F8D32846AFF300800D
:1003B00070BD10B5431C02E010F8011B71B181073C
:1003C000FAD14FF0013202C88C1A8C4314EAC211E0
:1003D000F9D0C01A0A0603D0C01E10BDC01A10BD45
:1003E0000A0401D0801E10BD0902FCD0401E10BDC1
:1003F00070477047704710B5436913B1AFF3008081
:1004000001E0FFF7ADFF012010BD127800F12401DB
:100410000A7000224A700122EDE711684FF0FF32A6
:10042000E9E7754600F02CF8AE46050069465346EC
:1004300020F00700854618B020B5FFF707FFBDE89C
:1004400020404FF000064FF000074FF000084FF03B
:10045000000BAC46ACE8C009ACE8C009ACE8C00988
:10046000ACE8C00921F007018D46704710B504467D
:10047000AFF300802046BDE81040FFF7D3BE000078
:10048000004870472000002001491820ABBEFEE75D
:100490002600020070470000FEE7000070470000E1
:1004A0002DE9F04F82B000F13E4241F6004502F1E5
:1004B000FF77C4F20205082243F6004E4FEAB72642
:1004C000A84208BF0722C4F2010E072E38BF4FEA28
:1004D000B7220125002600274FF00008009208E00F
:1004E00008F101080437B8F1100F06F1020600F018
:1004F000A7800C6805FA08F914EA090FF0D0D1F8C2
:1005000004B003220BF0030CACF10104B240012C47
:100510006FEA020A10D88268CC6802EA0A02B44084
:10052000224382604268CBF3001422EA090204FAF3
:1005300008F42243426005E0BCF1030F02D14FF002
:10054000030C20E0C2688C6802EA0A02B44022432D
:10055000BCF1020FC26016D16FF0030202EA58022A
:100560000244D2F820C007F01C050F230C69AB40F1
:100570002CEA030304FA05F52B431362D1F804B007
:1005800001250BF0030C02680CFA06F302EA0A02DA
:100590001A431BF4403F0260A2D0002243F64403FA
:1005A0000192C4F202031A684FF6084C42F48042EA
:1005B0001A601A68CFF6FF7C02F480420192019A19
:1005C00028F00302724452F80C3007F00C050F2497
:1005D000AC40A343009C04FA05F52B4342F80C30D1
:1005E000DEF808204B6842EA090543F60C4CDC02B1
:1005F00058BF22EA0905CEF80850C4F2010CDCF815
:1006000000209C0242EA090558BF22EA0905CCF8FD
:100610000050DEF804209C0342EA090558BF22EA94
:100620000905CEF80450DEF80020DB0342EA090594
:1006300058BF22EA0905CEF80050012550E700BF57
:1006400002B0BDE8F08F0000002A08BF09048161F4
:100650007047000040F20810C2F2000000687047C6
:1006600040F2000040F20811C2F20000C2F20001A4
:1006700000780A68104408607047000080B543F6AF
:100680000040C4F20200016841F400710160016899
:1006900041F480610160016841F4807101600320D0
:1006A00000F08AF8002000F005F800F027F800209C
:1006B00080BD000070B540F20006C2F2000640F2B4
:1006C0001C013278C2F200014FF47A730968B3FB5F
:1006D000F2F20446B1FBF2F1084600F045FB0F2CA4
:1006E0004FF0010508D838B94FF0FF3021460022FD
:1006F000002500F035F87460284670BD82B00020F7
:1007000043F640010190C4F202014A6842F480427B
:100710004A604A6802F480420192019A0090086897
:1007200040F080500860086800F080500090009809
:10073000072002B000F040B8002848BF7047C1B29F
:1007400000F01F00012202FA00F04EF20012CEF279
:10075000000242EAD10121F0030108607047000065
:1007600010B54EF60C5CCEF2000CDCF80030C3F392
:10077000022E8EF00704042C28BF0424BEF10303CC
:100780004FF0FF3E0EFA04F438BF0023A143994016
:100790000EFA03F39A43114300F00F0200F1604395
:1007A0000901043A03F564436244002848BF02F19A
:1007B0000C03197010BD00004EF60C51CEF2000172
:1007C0000A684FF6FF031A4060F30A2242F0806085
:1007D00040F0FD70086070472DE9F041002800F0FE
:1007E0008B8043F60808C4F202080446D8F8F803E0
:1007F0000D4600F00700884207D288F8F853D8F871
:10080000F80300F00700A84276D12068810717D5C9
:10081000410705D5D8F8001041F4E051C8F80010A0
:10082000010705D5D8F8001041F46041C8F8001060
:10083000D8F80010A26821F0F0011143C8F80010A8
:10084000C0073FD1D8F8F80300F00700A84207D945
:1008500088F8F853D8F8F80300F00700A8424BD105
:100860002068410707D5D8F80010E26821F4E0516C
:100870001143C8F80010000708D5D8F80000216916
:1008800020F4604040EAC100C8F8000000F07CF8A5
:10089000D8F8001041F24842C1F30311C0F600023B
:1008A000515C40F21C0220FA01F140F20400C2F255
:1008B00000000068C2F200021160FFF7FBFE00209A
:1008C000BDE8F0816068811E022907D258F8081C33
:1008D00089015CBF0120BDE8F08111E0012807D14A
:1008E00058F8081C89035CBF0120BDE8F08107E0CF
:1008F00058F8081C890703D40120BDE8F08100BF27
:10090000D8F8001021F003010843C8F80000FFF7F1
:10091000A1FE064641F28837D8F80000616800F071
:100920000C00B0EB810F8DD0FFF794FE801BB84216
:10093000F2D90320BDE8F08140F21C0043F6080123
:10094000C2F20000C4F202010068096841F2584294
:10095000C1F38221C0F60002515CC840704700001C
:1009600040F21C0043F60801C2F20000C4F202018A
:100970000068096841F25842C1F34231C0F60002F2
:10098000515CC8407047000010B543F60404C4F23F
:100990000204606800F00C0142F200400829C0F235
:1009A000F40007D0042918BF10BD41F20020C0F2A6
:1009B0007A0010BD216801F03F02216823684902D6
:1009C000C3F3881106D4A1FB00010023FFF750FCFC
:1009D00007E000BF41F20020C0F27A004843B0FBBC
:1009E000F2F021680222C1F3014102EB4101B0FBA8
:1009F000F1F010BD2DE9F04182B0002868D0044626
:100A0000007843F60006C007C4F202060BD0B068B7
:100A100000F00C00042840F09F803068800302D56D
:100A20006068002854D0207880071AD5B06810F08C
:100A30000C0F09D0B06800F00C00082840F0A68028
:100A40007068400200F1A2803068800702D5E0683B
:100A500001283DD13068216920F0F80040EAC1004A
:100A600030602078000737D4207840074CD4A5693F
:100A700055B3B06800F00C00082840F0BB80012D91
:100A800026D07068E16900F480028A4220D1216A90
:100A900000F03F028A421BD147F6C071626A0140F2
:100AA000B1EB821F14D1A16A4FF6FF73C9039943BA
:100AB00000F44032A1F580318A4209D1E16A00F0A8
:100AC0007060B0EB016F03D1002002B0BDE8F0818F
:100AD000012002B0BDE8F0816069002840F200000A
:100AE000C4F2472076D00121C0F8801EFFF7B2FD86
:100AF000054600BF706F8007B6D4FFF7ABFD401B03
:100B00000228F7D9DDE000BF306C10F080580AD120
:100B100000200190306C40F080503064306C00F068
:100B200080500190019847F20007C4F2000738682E
:100B3000C00541D4386840F480703860FFF78AFD02
:100B4000054600BF3868C00536D4FFF783FD401B5B
:100B50000228F7D9B5E000BFB06800F00C00082803
:100B600003D1706840023FF558AF6068B0F5803F30
:100B700007D0B0F5A02F40F08D80306840F4802081
:100B80003060306840F4803030608DE0E0680028EC
:100B900052D00020C4F2472001210160FFF75AFD26
:100BA000054600BF306880073FF554AFFFF752FDA0
:100BB000401B0228F6D984E0A068012805D005284A
:100BC0004ED1306F40F004003067306F40F00100CC
:100BD00030674FE00021C0F8801EFFF73BFD05465F
:100BE000706F80077FF540AFFFF734FD401B022890
:100BF000F6D966E00027C4F2472700203866FFF7E1
:100C000029FD022D05460BD1306880015ED5FFF726
:100C100021FD401B02284FF00300F5D955E700BF26
:100C2000306880017FF550AFFFF714FD401B0228AC
:100C30004FF00300F4D948E70020C4F24720002118
:100C40000160FFF707FD0546306880077FF509AFB3
:100C5000FFF700FD401B02284FF00300F4D934E7F2
:100C6000316F002821F001013167316F21F004015B
:100C700031674DD0FFF7EEFC054641F2883700BFE3
:100C8000306F800756D4FFF7E5FC401BB842F7D918
:100C900017E000BF3168002821F4803131603168ED
:100CA00021F4802131604FD0FFF7D4FC054600BF0E
:100CB000306880033FF5B7AEFFF7CCFC401B6428DB
:100CC000F6D9032002B0BDE8F08100BF04F11C0595
:100CD0002FCD084340EA8210D9034FF6FF729143AB
:100CE000A1F5803140EA0560084370600120386654
:100CF000FFF7B0FC044600BF306880013FF5E4AE6A
:100D0000FFF7A8FC001B02284FF00300F4D9DCE633
:100D1000FFF7A0FC054641F2883700BF306F80071F
:100D200008D5FFF797FC401BB8424FF00300F5D9F8
:100D3000CBE600BFB8F1000F7FF499AE306C20F025
:100D40008050306493E600BFFFF784FC054600BF87
:100D5000306880037FF567AEFFF77CFC401B64289A
:100D60004FF00300F4D9B0E6411E0020B0EB116F44
:100D70001CBF012070474EF21002CEF200025160FB
:100D80004EF62351CEF20001F0230B700721906044
:100D900011607047002804BF0120704710B5044659
:100DA00090F83D0028B9002084F83C00204600F06F
:100DB00021F8242084F83D002068C16821F4005106
:100DC000C160204600F024FA2068016921F49041B6
:100DD0000161416921F02A014161C16841F400517A
:100DE000C16000202021206484F83D1084F83E106A
:100DF00010BD000080B586B0006844F20042C4F225
:100E0000000200219042CDE90411CDE902110191C7
:100E100022D041F20001C4F20101884244D10020F5
:100E200043F630010090C4F202014A6942F0100218
:100E30004A614A6902F010020092009A0090086824
:100E400040F001000860086800F001000090009880
:100E50004FF4C06019E000BF43F630000091C4F2C7
:100E60000200026942F400320261026902F40032B7
:100E70000092009A0091016841F001010160006850
:100E800000F00100009000980C20019002200290D8
:100E90000020039003200490072005900020C4F256
:100EA000020001A9FFF7FCFA06B080BD2DE9F0436E
:100EB00081B0044690F83D0020280DD10F4600294E
:100EC0004FF0010000F0DD801646002A00F0D980C6
:100ED00094F83C00012803D1022001B0BDE8F08362
:100EE000012084F83C000020206421201D4684F865
:100EF0003D00FFF7AFFBA684E684A1680646B1F586
:100F0000805F03D12069002800F01081B8460027D7
:100F1000002084F83C00E18C2068002900F09080DB
:100F200005F101090DE000BFB8F1000F28D018F855
:100F3000011B4160E18C0139E184E18C002900F062
:100F40007F8001680906EFD4B9F1000F0AD0FDB126
:100F5000FFF780FB801BA8421AD8206801680906A9
:100F6000F6D5E1E701680906DED4016809065CBF31
:100F700001685FEA0161D7D401680906F2D5D3E7B9
:100F800037F8021B4FF000086FF35F21D1E700BF75
:100F9000206850E8030F216820F4D07041E8030274
:100FA000BAB3206850E8030F216820F4D07041E8FC
:100FB000030272B3206850E8030F216820F4D07058
:100FC00041E803022AB3206850E8030F216820F4A7
:100FD000D07041E80302002ADAD11AE0206850E814
:100FE000050F216820F0010041E80502DAB1206810
:100FF00050E8050F216820F0010041E8050292B198
:10100000206850E8050F216820F0010041E8050242
:101010004AB1206850E8050F216820F0010041E83E
:101020000502002ADAD1202084F83D0084F83E0031
:10103000002084F83C00032001B0BDE8F08300BF2D
:101040000168490619D4FDB1691C0DD10168490632
:1010500013D4016849065CBF01685FEA41610CD4A2
:1010600001684906F2D508E0FFF7F4FA801BA842B0
:101070000AD8206800684006F6D5202084F83D0094
:10108000002001B0BDE8F083206850E8030F21681C
:1010900020F4D07041E80302E2B3206850E8030F67
:1010A000216820F4D07041E803029AB3206850E828
:1010B000030F216820F4D07041E8030252B3206886
:1010C00050E8030F216820F4D07041E80302002AA1
:1010D000DAD11FE0206850E8050F216820F00100F8
:1010E00041E80502002A9ED0206850E8050F2168DB
:1010F00020F0010041E80502002A3FF494AF206887
:1011000050E8050F216820F0010041E80502002A9F
:101110003FF489AF206850E8050F216820F00100F6
:1011200041E80502002AD5D17DE700BF4FF0000855
:10113000EEE60000FEE70000FEE70000FEE700002C
:101140007047000070470000FFF78ABAB0B592B050
:10115000002443F640000B94CDE90944CDE907444F
:101160000594CDE90344CDE901440094C4F20200A2
:101170000168022541F080510160006800F0805054
:101180000090009847F200000094C4F2000001684B
:1011900021F480410160006800F4804000900098D4
:1011A0000120099010200A9008200E904020CDE9DF
:1011B0000F050720119006A80695CDE90C54FFF7FE
:1011C00019FC28B1EFF3108072B600BFFEE700BF34
:1011D0000F20CDE90105902003904FF48050CDE918
:1011E000040401A80021FFF7F7FA28B1EFF31080FB
:1011F00072B600BFFEE700BF12B0B0BD4EF6885019
:10120000CEF20000016841F47001016070470000F7
:1012100010B504460068D4E902C22369016921F4CB
:10122000405111430161626943EA0C01E3691143D2
:10123000C268194349F20C639A431143C160416982
:10124000A26921F4407141F20043114340F48062ED
:10125000C4F201039A42416102D1FFF781FB01E030
:10126000FFF76AFBE16963681922B1F5004FA0FB43
:10127000020123D15A00DB0FFEF7FAFF48F21F519B
:10128000C5F2EB11A0FB01235A094FF69C73C0F67F
:10129000FF7303F1805302FB0300322303EBC00012
:1012A000A0FB01014FF4F87000EA111000EB0210EE
:1012B000C1F3421108442168886010BD9A009B0F59
:1012C000FEF7D6FF48F21F51C5F2EB11A0FB012338
:1012D0005A094FF69C73C0F6FF7302FB03003223DA
:1012E00003EB0010A0FB0101F02000EA511000EB1D
:1012F0000210C1F3431108442168886010BD00004A
:10130000FEE7000086B040F20008C4F20208FFF7D2
:10131000B5F9FFF71BFF002643F63000CDE9046660
:101320000096C4F202000168002241F0040101604D
:101330000168202701F004010091009900960168DE
:1013400041F080010160016801F080010091009985
:101350000096016841F0010101600068202100F061
:101360000100009000984046FFF76EF94FF40050DE
:1013700001904FF4041001AD0290012408F50060C3
:1013800029460394FFF78CF840462946CDE90174BD
:10139000CDE90366FFF784F8282000210022FFF73B
:1013A000DFF92820FFF7C8F940F28000A8F5704166
:1013B000C2F200004FF416570C25C0E90017C0E92F
:1013C0000266C0E90465C0E90666FFF7E3FC28B1E0
:1013D000EFF3108072B600BFFEE700BF40F2C4001A
:1013E000A8F5DE31C2F20000C0E90017C0E90266CC
:1013F000C0E90465C0E90666FFF7CCFC20B1EFF355
:10140000108072B6FEE700BF40F20804C2F200048A
:101410002046FEF7CEFF82B240F28000C2F200000A
:1014200021464FF0FF33FFF741FD00BFFEE7F1EE2D
:10143000100A4FF6FF71C0F2C03120EA010040F0FF
:101440004070E1EE100A704700000000000000004C
:10145000010203040607080900000000010203045A
:10146000801400080000002020000000C4010008D3
:10147000A014000820000020F0060000E001000891
:10148000010000001000000041544430373237386A
:1014900038303838373B0D0A000000000024F400D3
:040000050800018965
:00000001FF
